{
  "contractName": "SupplyChain",
  "abi": [
    {
      "inputs": [],
      "payable": false,
      "stateMutability": "nonpayable",
      "type": "constructor"
    },
    {
      "anonymous": false,
      "inputs": [
        {
          "indexed": false,
          "name": "user",
          "type": "address"
        },
        {
          "indexed": false,
          "name": "batchID",
          "type": "uint256"
        },
        {
          "indexed": false,
          "name": "role",
          "type": "uint8"
        }
      ],
      "name": "BatchUpdate",
      "type": "event"
    },
    {
      "constant": true,
      "inputs": [
        {
          "name": "batchID",
          "type": "uint256"
        },
        {
          "name": "user",
          "type": "address"
        }
      ],
      "name": "getRole",
      "outputs": [
        {
          "name": "",
          "type": "uint8"
        }
      ],
      "payable": false,
      "stateMutability": "view",
      "type": "function"
    },
    {
      "constant": false,
      "inputs": [
        {
          "name": "role",
          "type": "uint8"
        }
      ],
      "name": "startNewBatch",
      "outputs": [
        {
          "name": "",
          "type": "bool"
        }
      ],
      "payable": false,
      "stateMutability": "nonpayable",
      "type": "function"
    }
  ],
  "bytecode": "0x608060405234801561001057600080fd5b5060008081905550610294806100276000396000f30060806040526004361061004c576000357c0100000000000000000000000000000000000000000000000000000000900463ffffffff1680632ba412d81461005157806393552a3d14610099575b600080fd5b34801561005d57600080fd5b5061007f600480360381019080803560ff169060200190929190505050610100565b604051808215151515815260200191505060405180910390f35b3480156100a557600080fd5b506100e460048036038101908080359060200190929190803573ffffffffffffffffffffffffffffffffffffffff1690602001909291905050506101fd565b604051808260ff1660ff16815260200191505060405180910390f35b60007f967a9746065f5ca241eecf5ae525d8393901f909f47b7bb7a67859aef197195c3360005484604051808473ffffffffffffffffffffffffffffffffffffffff1673ffffffffffffffffffffffffffffffffffffffff1681526020018381526020018260ff1660ff168152602001935050505060405180910390a1816001600080600081548092919060010191905055815260200190815260200160002060000160003373ffffffffffffffffffffffffffffffffffffffff1673ffffffffffffffffffffffffffffffffffffffff16815260200190815260200160002060006101000a81548160ff021916908360ff160217905550919050565b60006001600084815260200190815260200160002060000160008373ffffffffffffffffffffffffffffffffffffffff1673ffffffffffffffffffffffffffffffffffffffff16815260200190815260200160002060009054906101000a900460ff169050929150505600a165627a7a72305820b90d4c87b0687a27eff9776cd2ef8ff2ec925a7d54853c762b3478aae39002ae0029",
  "source": "pragma solidity >=0.4.21 <0.6.0;\n\ncontract SupplyChain {\n\n    /*\n    Roles enumerations\n    1 - Farmer\n    2 - Sourcer\n    3 - Exporter\n    4 - Importer\n    5 - Retailer\n    */\n\n    uint256 batchCounter;\n\n    struct Batch {\n        mapping (address => uint8) userRoles;\n    }\n\n    event BatchUpdate(address user, uint256 batchID, uint8 role);\n\n    mapping (uint256 => Batch) batchMap;\n\n    constructor() public {\n        batchCounter = 0;\n    }\n\n    function getRole (uint256 batchID, address user) external view returns (uint8) {\n        return batchMap[batchID].userRoles[user];\n    }\n\n    function startNewBatch(uint8 role) public returns (bool) {\n        emit BatchUpdate(msg.sender, batchCounter, role);\n        batchMap[batchCounter++].userRoles[msg.sender] = role;\n    }\n}",
  "sourcePath": "/Users/dpan/Desktop/GuacChain/blockchain/contracts/SupplyChain.sol",
  "compiler": {
    "name": "solc",
    "version": "0.4.25+commit.59dbf8f1.Emscripten.clang"
  },
  "schemaVersion": "2.0.2",
  "updatedAt": "2019-03-26T03:11:44.380Z"
}